{
	"isprime.sol": {
		"Assign4": {
			"abi": [
				{
					"inputs": [
						{
							"internalType": "uint256",
							"name": "num",
							"type": "uint256"
						}
					],
					"name": "ifPrime",
					"outputs": [
						{
							"internalType": "bool",
							"name": "",
							"type": "bool"
						}
					],
					"stateMutability": "pure",
					"type": "function"
				}
			],
			"devdoc": {
				"kind": "dev",
				"methods": {},
				"version": 1
			},
			"evm": {
				"assembly": "    /* \"isprime.sol\":57:326  contract Assign4{... */\n  mstore(0x40, 0x80)\n  callvalue\n  dup1\n  iszero\n  tag_1\n  jumpi\n  revert(0x00, 0x00)\ntag_1:\n  pop\n  dataSize(sub_0)\n  dup1\n  dataOffset(sub_0)\n  0x00\n  codecopy\n  0x00\n  return\nstop\n\nsub_0: assembly {\n        /* \"isprime.sol\":57:326  contract Assign4{... */\n      mstore(0x40, 0x80)\n      callvalue\n      dup1\n      iszero\n      tag_1\n      jumpi\n      revert(0x00, 0x00)\n    tag_1:\n      pop\n      jumpi(tag_2, lt(calldatasize, 0x04))\n      shr(0xe0, calldataload(0x00))\n      dup1\n      0xee817d39\n      eq\n      tag_3\n      jumpi\n    tag_2:\n      revert(0x00, 0x00)\n        /* \"isprime.sol\":80:323  function ifPrime(uint num)  public pure returns(bool){... */\n    tag_3:\n      tag_4\n      0x04\n      dup1\n      calldatasize\n      sub\n      dup2\n      add\n      swap1\n      tag_5\n      swap2\n      swap1\n      tag_6\n      jump\t// in\n    tag_5:\n      tag_7\n      jump\t// in\n    tag_4:\n      mload(0x40)\n      tag_8\n      swap2\n      swap1\n      tag_9\n      jump\t// in\n    tag_8:\n      mload(0x40)\n      dup1\n      swap2\n      sub\n      swap1\n      return\n    tag_7:\n        /* \"isprime.sol\":128:132  bool */\n      0x00\n        /* \"isprime.sol\":152:153  1 */\n      0x01\n        /* \"isprime.sol\":147:150  num */\n      dup3\n        /* \"isprime.sol\":147:153  num<=1 */\n      gt\n        /* \"isprime.sol\":144:168  if(num<=1)  return false */\n      tag_11\n      jumpi\n        /* \"isprime.sol\":163:168  false */\n      0x00\n        /* \"isprime.sol\":156:168  return false */\n      swap1\n      pop\n      jump(tag_10)\n        /* \"isprime.sol\":144:168  if(num<=1)  return false */\n    tag_11:\n        /* \"isprime.sol\":187:188  2 */\n      0x02\n        /* \"isprime.sol\":182:185  num */\n      dup3\n        /* \"isprime.sol\":182:188  num==2 */\n      sub\n        /* \"isprime.sol\":179:202  if(num==2)  return true */\n      tag_12\n      jumpi\n        /* \"isprime.sol\":198:202  true */\n      0x01\n        /* \"isprime.sol\":191:202  return true */\n      swap1\n      pop\n      jump(tag_10)\n        /* \"isprime.sol\":179:202  if(num==2)  return true */\n    tag_12:\n        /* \"isprime.sol\":217:223  uint i */\n      0x00\n        /* \"isprime.sol\":224:225  2 */\n      0x02\n        /* \"isprime.sol\":217:225  uint i=2 */\n      swap1\n      pop\n        /* \"isprime.sol\":213:294  for(uint i=2;i*i<=num;i++){... */\n    tag_13:\n        /* \"isprime.sol\":231:234  num */\n      dup3\n        /* \"isprime.sol\":228:229  i */\n      dup2\n        /* \"isprime.sol\":226:227  i */\n      dup3\n        /* \"isprime.sol\":226:229  i*i */\n      tag_16\n      swap2\n      swap1\n      tag_17\n      jump\t// in\n    tag_16:\n        /* \"isprime.sol\":226:234  i*i<=num */\n      gt\n        /* \"isprime.sol\":213:294  for(uint i=2;i*i<=num;i++){... */\n      tag_14\n      jumpi\n        /* \"isprime.sol\":264:265  0 */\n      0x00\n        /* \"isprime.sol\":261:262  i */\n      dup2\n        /* \"isprime.sol\":257:260  num */\n      dup5\n        /* \"isprime.sol\":257:262  num%i */\n      tag_18\n      swap2\n      swap1\n      tag_19\n      jump\t// in\n    tag_18:\n        /* \"isprime.sol\":257:265  num%i==0 */\n      sub\n        /* \"isprime.sol\":254:282  if(num%i==0)    return false */\n      tag_20\n      jumpi\n        /* \"isprime.sol\":277:282  false */\n      0x00\n        /* \"isprime.sol\":270:282  return false */\n      swap2\n      pop\n      pop\n      jump(tag_10)\n        /* \"isprime.sol\":254:282  if(num%i==0)    return false */\n    tag_20:\n        /* \"isprime.sol\":235:238  i++ */\n      dup1\n      dup1\n      tag_21\n      swap1\n      tag_22\n      jump\t// in\n    tag_21:\n      swap2\n      pop\n      pop\n        /* \"isprime.sol\":213:294  for(uint i=2;i*i<=num;i++){... */\n      jump(tag_13)\n    tag_14:\n      pop\n        /* \"isprime.sol\":311:315  true */\n      0x01\n        /* \"isprime.sol\":304:315  return true */\n      swap1\n      pop\n        /* \"isprime.sol\":80:323  function ifPrime(uint num)  public pure returns(bool){... */\n    tag_10:\n      swap2\n      swap1\n      pop\n      jump\t// out\n        /* \"#utility.yul\":88:205   */\n    tag_24:\n        /* \"#utility.yul\":197:198   */\n      0x00\n        /* \"#utility.yul\":194:195   */\n      0x00\n        /* \"#utility.yul\":187:199   */\n      revert\n        /* \"#utility.yul\":334:411   */\n    tag_26:\n        /* \"#utility.yul\":371:378   */\n      0x00\n        /* \"#utility.yul\":400:405   */\n      dup2\n        /* \"#utility.yul\":389:405   */\n      swap1\n      pop\n        /* \"#utility.yul\":334:411   */\n      swap2\n      swap1\n      pop\n      jump\t// out\n        /* \"#utility.yul\":417:539   */\n    tag_27:\n        /* \"#utility.yul\":490:514   */\n      tag_39\n        /* \"#utility.yul\":508:513   */\n      dup2\n        /* \"#utility.yul\":490:514   */\n      tag_26\n      jump\t// in\n    tag_39:\n        /* \"#utility.yul\":483:488   */\n      dup2\n        /* \"#utility.yul\":480:515   */\n      eq\n        /* \"#utility.yul\":470:533   */\n      tag_40\n      jumpi\n        /* \"#utility.yul\":529:530   */\n      0x00\n        /* \"#utility.yul\":526:527   */\n      0x00\n        /* \"#utility.yul\":519:531   */\n      revert\n        /* \"#utility.yul\":470:533   */\n    tag_40:\n        /* \"#utility.yul\":417:539   */\n      pop\n      jump\t// out\n        /* \"#utility.yul\":545:684   */\n    tag_28:\n        /* \"#utility.yul\":591:596   */\n      0x00\n        /* \"#utility.yul\":629:635   */\n      dup2\n        /* \"#utility.yul\":616:636   */\n      calldataload\n        /* \"#utility.yul\":607:636   */\n      swap1\n      pop\n        /* \"#utility.yul\":645:678   */\n      tag_42\n        /* \"#utility.yul\":672:677   */\n      dup2\n        /* \"#utility.yul\":645:678   */\n      tag_27\n      jump\t// in\n    tag_42:\n        /* \"#utility.yul\":545:684   */\n      swap3\n      swap2\n      pop\n      pop\n      jump\t// out\n        /* \"#utility.yul\":690:1019   */\n    tag_6:\n        /* \"#utility.yul\":749:755   */\n      0x00\n        /* \"#utility.yul\":798:800   */\n      0x20\n        /* \"#utility.yul\":786:795   */\n      dup3\n        /* \"#utility.yul\":777:784   */\n      dup5\n        /* \"#utility.yul\":773:796   */\n      sub\n        /* \"#utility.yul\":769:801   */\n      slt\n        /* \"#utility.yul\":766:885   */\n      iszero\n      tag_44\n      jumpi\n        /* \"#utility.yul\":804:883   */\n      tag_45\n      tag_24\n      jump\t// in\n    tag_45:\n        /* \"#utility.yul\":766:885   */\n    tag_44:\n        /* \"#utility.yul\":924:925   */\n      0x00\n        /* \"#utility.yul\":949:1002   */\n      tag_46\n        /* \"#utility.yul\":994:1001   */\n      dup5\n        /* \"#utility.yul\":985:991   */\n      dup3\n        /* \"#utility.yul\":974:983   */\n      dup6\n        /* \"#utility.yul\":970:992   */\n      add\n        /* \"#utility.yul\":949:1002   */\n      tag_28\n      jump\t// in\n    tag_46:\n        /* \"#utility.yul\":939:1002   */\n      swap2\n      pop\n        /* \"#utility.yul\":895:1012   */\n      pop\n        /* \"#utility.yul\":690:1019   */\n      swap3\n      swap2\n      pop\n      pop\n      jump\t// out\n        /* \"#utility.yul\":1025:1115   */\n    tag_29:\n        /* \"#utility.yul\":1059:1066   */\n      0x00\n        /* \"#utility.yul\":1102:1107   */\n      dup2\n        /* \"#utility.yul\":1095:1108   */\n      iszero\n        /* \"#utility.yul\":1088:1109   */\n      iszero\n        /* \"#utility.yul\":1077:1109   */\n      swap1\n      pop\n        /* \"#utility.yul\":1025:1115   */\n      swap2\n      swap1\n      pop\n      jump\t// out\n        /* \"#utility.yul\":1121:1230   */\n    tag_30:\n        /* \"#utility.yul\":1202:1223   */\n      tag_49\n        /* \"#utility.yul\":1217:1222   */\n      dup2\n        /* \"#utility.yul\":1202:1223   */\n      tag_29\n      jump\t// in\n    tag_49:\n        /* \"#utility.yul\":1197:1200   */\n      dup3\n        /* \"#utility.yul\":1190:1224   */\n      mstore\n        /* \"#utility.yul\":1121:1230   */\n      pop\n      pop\n      jump\t// out\n        /* \"#utility.yul\":1236:1446   */\n    tag_9:\n        /* \"#utility.yul\":1323:1327   */\n      0x00\n        /* \"#utility.yul\":1361:1363   */\n      0x20\n        /* \"#utility.yul\":1350:1359   */\n      dup3\n        /* \"#utility.yul\":1346:1364   */\n      add\n        /* \"#utility.yul\":1338:1364   */\n      swap1\n      pop\n        /* \"#utility.yul\":1374:1439   */\n      tag_51\n        /* \"#utility.yul\":1436:1437   */\n      0x00\n        /* \"#utility.yul\":1425:1434   */\n      dup4\n        /* \"#utility.yul\":1421:1438   */\n      add\n        /* \"#utility.yul\":1412:1418   */\n      dup5\n        /* \"#utility.yul\":1374:1439   */\n      tag_30\n      jump\t// in\n    tag_51:\n        /* \"#utility.yul\":1236:1446   */\n      swap3\n      swap2\n      pop\n      pop\n      jump\t// out\n        /* \"#utility.yul\":1452:1632   */\n    tag_31:\n        /* \"#utility.yul\":1500:1577   */\n      0x4e487b7100000000000000000000000000000000000000000000000000000000\n        /* \"#utility.yul\":1497:1498   */\n      0x00\n        /* \"#utility.yul\":1490:1578   */\n      mstore\n        /* \"#utility.yul\":1597:1601   */\n      0x11\n        /* \"#utility.yul\":1594:1595   */\n      0x04\n        /* \"#utility.yul\":1587:1602   */\n      mstore\n        /* \"#utility.yul\":1621:1625   */\n      0x24\n        /* \"#utility.yul\":1618:1619   */\n      0x00\n        /* \"#utility.yul\":1611:1626   */\n      revert\n        /* \"#utility.yul\":1638:2048   */\n    tag_17:\n        /* \"#utility.yul\":1678:1685   */\n      0x00\n        /* \"#utility.yul\":1701:1721   */\n      tag_54\n        /* \"#utility.yul\":1719:1720   */\n      dup3\n        /* \"#utility.yul\":1701:1721   */\n      tag_26\n      jump\t// in\n    tag_54:\n        /* \"#utility.yul\":1696:1721   */\n      swap2\n      pop\n        /* \"#utility.yul\":1735:1755   */\n      tag_55\n        /* \"#utility.yul\":1753:1754   */\n      dup4\n        /* \"#utility.yul\":1735:1755   */\n      tag_26\n      jump\t// in\n    tag_55:\n        /* \"#utility.yul\":1730:1755   */\n      swap3\n      pop\n        /* \"#utility.yul\":1790:1791   */\n      dup3\n        /* \"#utility.yul\":1787:1788   */\n      dup3\n        /* \"#utility.yul\":1783:1792   */\n      mul\n        /* \"#utility.yul\":1812:1842   */\n      tag_56\n        /* \"#utility.yul\":1830:1841   */\n      dup2\n        /* \"#utility.yul\":1812:1842   */\n      tag_26\n      jump\t// in\n    tag_56:\n        /* \"#utility.yul\":1801:1842   */\n      swap2\n      pop\n        /* \"#utility.yul\":1991:1992   */\n      dup3\n        /* \"#utility.yul\":1982:1989   */\n      dup3\n        /* \"#utility.yul\":1978:1993   */\n      div\n        /* \"#utility.yul\":1975:1976   */\n      dup5\n        /* \"#utility.yul\":1972:1994   */\n      eq\n        /* \"#utility.yul\":1952:1953   */\n      dup4\n        /* \"#utility.yul\":1945:1954   */\n      iszero\n        /* \"#utility.yul\":1925:2008   */\n      or\n        /* \"#utility.yul\":1902:2041   */\n      tag_57\n      jumpi\n        /* \"#utility.yul\":2021:2039   */\n      tag_58\n      tag_31\n      jump\t// in\n    tag_58:\n        /* \"#utility.yul\":1902:2041   */\n    tag_57:\n        /* \"#utility.yul\":1686:2048   */\n      pop\n        /* \"#utility.yul\":1638:2048   */\n      swap3\n      swap2\n      pop\n      pop\n      jump\t// out\n        /* \"#utility.yul\":2054:2234   */\n    tag_32:\n        /* \"#utility.yul\":2102:2179   */\n      0x4e487b7100000000000000000000000000000000000000000000000000000000\n        /* \"#utility.yul\":2099:2100   */\n      0x00\n        /* \"#utility.yul\":2092:2180   */\n      mstore\n        /* \"#utility.yul\":2199:2203   */\n      0x12\n        /* \"#utility.yul\":2196:2197   */\n      0x04\n        /* \"#utility.yul\":2189:2204   */\n      mstore\n        /* \"#utility.yul\":2223:2227   */\n      0x24\n        /* \"#utility.yul\":2220:2221   */\n      0x00\n        /* \"#utility.yul\":2213:2228   */\n      revert\n        /* \"#utility.yul\":2240:2416   */\n    tag_19:\n        /* \"#utility.yul\":2272:2273   */\n      0x00\n        /* \"#utility.yul\":2289:2309   */\n      tag_61\n        /* \"#utility.yul\":2307:2308   */\n      dup3\n        /* \"#utility.yul\":2289:2309   */\n      tag_26\n      jump\t// in\n    tag_61:\n        /* \"#utility.yul\":2284:2309   */\n      swap2\n      pop\n        /* \"#utility.yul\":2323:2343   */\n      tag_62\n        /* \"#utility.yul\":2341:2342   */\n      dup4\n        /* \"#utility.yul\":2323:2343   */\n      tag_26\n      jump\t// in\n    tag_62:\n        /* \"#utility.yul\":2318:2343   */\n      swap3\n      pop\n        /* \"#utility.yul\":2362:2363   */\n      dup3\n        /* \"#utility.yul\":2352:2387   */\n      tag_63\n      jumpi\n        /* \"#utility.yul\":2367:2385   */\n      tag_64\n      tag_32\n      jump\t// in\n    tag_64:\n        /* \"#utility.yul\":2352:2387   */\n    tag_63:\n        /* \"#utility.yul\":2408:2409   */\n      dup3\n        /* \"#utility.yul\":2405:2406   */\n      dup3\n        /* \"#utility.yul\":2401:2410   */\n      mod\n        /* \"#utility.yul\":2396:2410   */\n      swap1\n      pop\n        /* \"#utility.yul\":2240:2416   */\n      swap3\n      swap2\n      pop\n      pop\n      jump\t// out\n        /* \"#utility.yul\":2422:2655   */\n    tag_22:\n        /* \"#utility.yul\":2461:2464   */\n      0x00\n        /* \"#utility.yul\":2484:2508   */\n      tag_66\n        /* \"#utility.yul\":2502:2507   */\n      dup3\n        /* \"#utility.yul\":2484:2508   */\n      tag_26\n      jump\t// in\n    tag_66:\n        /* \"#utility.yul\":2475:2508   */\n      swap2\n      pop\n        /* \"#utility.yul\":2530:2596   */\n      0xffffffffffffffffffffffffffffffffffffffffffffffffffffffffffffffff\n        /* \"#utility.yul\":2523:2528   */\n      dup3\n        /* \"#utility.yul\":2520:2597   */\n      sub\n        /* \"#utility.yul\":2517:2620   */\n      tag_67\n      jumpi\n        /* \"#utility.yul\":2600:2618   */\n      tag_68\n      tag_31\n      jump\t// in\n    tag_68:\n        /* \"#utility.yul\":2517:2620   */\n    tag_67:\n        /* \"#utility.yul\":2647:2648   */\n      0x01\n        /* \"#utility.yul\":2640:2645   */\n      dup3\n        /* \"#utility.yul\":2636:2649   */\n      add\n        /* \"#utility.yul\":2629:2649   */\n      swap1\n      pop\n        /* \"#utility.yul\":2422:2655   */\n      swap2\n      swap1\n      pop\n      jump\t// out\n\n    auxdata: 0xa2646970667358221220a51b6c4e2cf2628b3a475f24bfbb7de7c5a4f4729dccb171adcdff17b354b55564736f6c634300081e0033\n}\n",
				"bytecode": {
					"linkReferences": {},
					"object": "6080604052348015600e575f5ffd5b506102ad8061001c5f395ff3fe608060405234801561000f575f5ffd5b5060043610610029575f3560e01c8063ee817d391461002d575b5f5ffd5b61004760048036038101906100429190610107565b61005d565b604051610054919061014c565b60405180910390f35b5f6001821161006e575f90506100cb565b6002820361007f57600190506100cb565b5f600290505b8281826100929190610192565b116100c5575f81846100a49190610200565b036100b2575f9150506100cb565b80806100bd90610230565b915050610085565b50600190505b919050565b5f5ffd5b5f819050919050565b6100e6816100d4565b81146100f0575f5ffd5b50565b5f81359050610101816100dd565b92915050565b5f6020828403121561011c5761011b6100d0565b5b5f610129848285016100f3565b91505092915050565b5f8115159050919050565b61014681610132565b82525050565b5f60208201905061015f5f83018461013d565b92915050565b7f4e487b71000000000000000000000000000000000000000000000000000000005f52601160045260245ffd5b5f61019c826100d4565b91506101a7836100d4565b92508282026101b5816100d4565b915082820484148315176101cc576101cb610165565b5b5092915050565b7f4e487b71000000000000000000000000000000000000000000000000000000005f52601260045260245ffd5b5f61020a826100d4565b9150610215836100d4565b925082610225576102246101d3565b5b828206905092915050565b5f61023a826100d4565b91507fffffffffffffffffffffffffffffffffffffffffffffffffffffffffffffffff820361026c5761026b610165565b5b60018201905091905056fea2646970667358221220a51b6c4e2cf2628b3a475f24bfbb7de7c5a4f4729dccb171adcdff17b354b55564736f6c634300081e0033",
					"opcodes": "PUSH1 0x80 PUSH1 0x40 MSTORE CALLVALUE DUP1 ISZERO PUSH1 0xE JUMPI PUSH0 PUSH0 REVERT JUMPDEST POP PUSH2 0x2AD DUP1 PUSH2 0x1C PUSH0 CODECOPY PUSH0 RETURN INVALID PUSH1 0x80 PUSH1 0x40 MSTORE CALLVALUE DUP1 ISZERO PUSH2 0xF JUMPI PUSH0 PUSH0 REVERT JUMPDEST POP PUSH1 0x4 CALLDATASIZE LT PUSH2 0x29 JUMPI PUSH0 CALLDATALOAD PUSH1 0xE0 SHR DUP1 PUSH4 0xEE817D39 EQ PUSH2 0x2D JUMPI JUMPDEST PUSH0 PUSH0 REVERT JUMPDEST PUSH2 0x47 PUSH1 0x4 DUP1 CALLDATASIZE SUB DUP2 ADD SWAP1 PUSH2 0x42 SWAP2 SWAP1 PUSH2 0x107 JUMP JUMPDEST PUSH2 0x5D JUMP JUMPDEST PUSH1 0x40 MLOAD PUSH2 0x54 SWAP2 SWAP1 PUSH2 0x14C JUMP JUMPDEST PUSH1 0x40 MLOAD DUP1 SWAP2 SUB SWAP1 RETURN JUMPDEST PUSH0 PUSH1 0x1 DUP3 GT PUSH2 0x6E JUMPI PUSH0 SWAP1 POP PUSH2 0xCB JUMP JUMPDEST PUSH1 0x2 DUP3 SUB PUSH2 0x7F JUMPI PUSH1 0x1 SWAP1 POP PUSH2 0xCB JUMP JUMPDEST PUSH0 PUSH1 0x2 SWAP1 POP JUMPDEST DUP3 DUP2 DUP3 PUSH2 0x92 SWAP2 SWAP1 PUSH2 0x192 JUMP JUMPDEST GT PUSH2 0xC5 JUMPI PUSH0 DUP2 DUP5 PUSH2 0xA4 SWAP2 SWAP1 PUSH2 0x200 JUMP JUMPDEST SUB PUSH2 0xB2 JUMPI PUSH0 SWAP2 POP POP PUSH2 0xCB JUMP JUMPDEST DUP1 DUP1 PUSH2 0xBD SWAP1 PUSH2 0x230 JUMP JUMPDEST SWAP2 POP POP PUSH2 0x85 JUMP JUMPDEST POP PUSH1 0x1 SWAP1 POP JUMPDEST SWAP2 SWAP1 POP JUMP JUMPDEST PUSH0 PUSH0 REVERT JUMPDEST PUSH0 DUP2 SWAP1 POP SWAP2 SWAP1 POP JUMP JUMPDEST PUSH2 0xE6 DUP2 PUSH2 0xD4 JUMP JUMPDEST DUP2 EQ PUSH2 0xF0 JUMPI PUSH0 PUSH0 REVERT JUMPDEST POP JUMP JUMPDEST PUSH0 DUP2 CALLDATALOAD SWAP1 POP PUSH2 0x101 DUP2 PUSH2 0xDD JUMP JUMPDEST SWAP3 SWAP2 POP POP JUMP JUMPDEST PUSH0 PUSH1 0x20 DUP3 DUP5 SUB SLT ISZERO PUSH2 0x11C JUMPI PUSH2 0x11B PUSH2 0xD0 JUMP JUMPDEST JUMPDEST PUSH0 PUSH2 0x129 DUP5 DUP3 DUP6 ADD PUSH2 0xF3 JUMP JUMPDEST SWAP2 POP POP SWAP3 SWAP2 POP POP JUMP JUMPDEST PUSH0 DUP2 ISZERO ISZERO SWAP1 POP SWAP2 SWAP1 POP JUMP JUMPDEST PUSH2 0x146 DUP2 PUSH2 0x132 JUMP JUMPDEST DUP3 MSTORE POP POP JUMP JUMPDEST PUSH0 PUSH1 0x20 DUP3 ADD SWAP1 POP PUSH2 0x15F PUSH0 DUP4 ADD DUP5 PUSH2 0x13D JUMP JUMPDEST SWAP3 SWAP2 POP POP JUMP JUMPDEST PUSH32 0x4E487B7100000000000000000000000000000000000000000000000000000000 PUSH0 MSTORE PUSH1 0x11 PUSH1 0x4 MSTORE PUSH1 0x24 PUSH0 REVERT JUMPDEST PUSH0 PUSH2 0x19C DUP3 PUSH2 0xD4 JUMP JUMPDEST SWAP2 POP PUSH2 0x1A7 DUP4 PUSH2 0xD4 JUMP JUMPDEST SWAP3 POP DUP3 DUP3 MUL PUSH2 0x1B5 DUP2 PUSH2 0xD4 JUMP JUMPDEST SWAP2 POP DUP3 DUP3 DIV DUP5 EQ DUP4 ISZERO OR PUSH2 0x1CC JUMPI PUSH2 0x1CB PUSH2 0x165 JUMP JUMPDEST JUMPDEST POP SWAP3 SWAP2 POP POP JUMP JUMPDEST PUSH32 0x4E487B7100000000000000000000000000000000000000000000000000000000 PUSH0 MSTORE PUSH1 0x12 PUSH1 0x4 MSTORE PUSH1 0x24 PUSH0 REVERT JUMPDEST PUSH0 PUSH2 0x20A DUP3 PUSH2 0xD4 JUMP JUMPDEST SWAP2 POP PUSH2 0x215 DUP4 PUSH2 0xD4 JUMP JUMPDEST SWAP3 POP DUP3 PUSH2 0x225 JUMPI PUSH2 0x224 PUSH2 0x1D3 JUMP JUMPDEST JUMPDEST DUP3 DUP3 MOD SWAP1 POP SWAP3 SWAP2 POP POP JUMP JUMPDEST PUSH0 PUSH2 0x23A DUP3 PUSH2 0xD4 JUMP JUMPDEST SWAP2 POP PUSH32 0xFFFFFFFFFFFFFFFFFFFFFFFFFFFFFFFFFFFFFFFFFFFFFFFFFFFFFFFFFFFFFFFF DUP3 SUB PUSH2 0x26C JUMPI PUSH2 0x26B PUSH2 0x165 JUMP JUMPDEST JUMPDEST PUSH1 0x1 DUP3 ADD SWAP1 POP SWAP2 SWAP1 POP JUMP INVALID LOG2 PUSH5 0x6970667358 0x22 SLT KECCAK256 0xA5 SHL PUSH13 0x4E2CF2628B3A475F24BFBB7DE7 0xC5 LOG4 DELEGATECALL PUSH19 0x9DCCB171ADCDFF17B354B55564736F6C634300 ADDMOD 0x1E STOP CALLER "
				},
				"gasEstimates": {
					"creation": {
						"codeDepositCost": "137000",
						"executionCost": "181",
						"totalCost": "137181"
					},
					"external": {
						"ifPrime(uint256)": "infinite"
					}
				},
				"methodIdentifiers": {
					"ifPrime(uint256)": "ee817d39"
				}
			},
			"storageLayout": {
				"storage": [],
				"types": null
			},
			"userdoc": {
				"kind": "user",
				"methods": {},
				"version": 1
			}
		}
	}
}