{
	"reversenum.sol": {
		"Assign5": {
			"abi": [
				{
					"inputs": [
						{
							"internalType": "uint256",
							"name": "temp",
							"type": "uint256"
						}
					],
					"name": "assignedvalue",
					"outputs": [],
					"stateMutability": "nonpayable",
					"type": "function"
				},
				{
					"inputs": [],
					"name": "reversenumber",
					"outputs": [
						{
							"internalType": "uint256",
							"name": "",
							"type": "uint256"
						}
					],
					"stateMutability": "view",
					"type": "function"
				}
			],
			"devdoc": {
				"kind": "dev",
				"methods": {},
				"version": 1
			},
			"evm": {
				"assembly": "    /* \"reversenum.sol\":57:391  contract Assign5{... */\n  mstore(0x40, 0x80)\n  callvalue\n  dup1\n  iszero\n  tag_1\n  jumpi\n  revert(0x00, 0x00)\ntag_1:\n  pop\n  dataSize(sub_0)\n  dup1\n  dataOffset(sub_0)\n  0x00\n  codecopy\n  0x00\n  return\nstop\n\nsub_0: assembly {\n        /* \"reversenum.sol\":57:391  contract Assign5{... */\n      mstore(0x40, 0x80)\n      callvalue\n      dup1\n      iszero\n      tag_1\n      jumpi\n      revert(0x00, 0x00)\n    tag_1:\n      pop\n      jumpi(tag_2, lt(calldatasize, 0x04))\n      shr(0xe0, calldataload(0x00))\n      dup1\n      0x5ab47ec0\n      eq\n      tag_3\n      jumpi\n      dup1\n      0xb9341bb6\n      eq\n      tag_4\n      jumpi\n    tag_2:\n      revert(0x00, 0x00)\n        /* \"reversenum.sol\":168:388  function reversenumber() public view returns(uint){... */\n    tag_3:\n      tag_5\n      tag_6\n      jump\t// in\n    tag_5:\n      mload(0x40)\n      tag_7\n      swap2\n      swap1\n      tag_8\n      jump\t// in\n    tag_7:\n      mload(0x40)\n      dup1\n      swap2\n      sub\n      swap1\n      return\n        /* \"reversenum.sol\":95:162  function assignedvalue(uint temp) public{... */\n    tag_4:\n      tag_9\n      0x04\n      dup1\n      calldatasize\n      sub\n      dup2\n      add\n      swap1\n      tag_10\n      swap2\n      swap1\n      tag_11\n      jump\t// in\n    tag_10:\n      tag_12\n      jump\t// in\n    tag_9:\n      stop\n        /* \"reversenum.sol\":168:388  function reversenumber() public view returns(uint){... */\n    tag_6:\n        /* \"reversenum.sol\":213:217  uint */\n      0x00\n        /* \"reversenum.sol\":229:235  uint x */\n      0x00\n        /* \"reversenum.sol\":236:239  num */\n      sload(0x00)\n        /* \"reversenum.sol\":229:239  uint x=num */\n      swap1\n      pop\n        /* \"reversenum.sol\":250:261  uint revnum */\n      0x00\n        /* \"reversenum.sol\":262:263  0 */\n      0x00\n        /* \"reversenum.sol\":250:263  uint revnum=0 */\n      swap1\n      pop\n        /* \"reversenum.sol\":274:357  while(x!=0){... */\n    tag_14:\n        /* \"reversenum.sol\":283:284  0 */\n      0x00\n        /* \"reversenum.sol\":280:281  x */\n      dup3\n        /* \"reversenum.sol\":280:284  x!=0 */\n      eq\n        /* \"reversenum.sol\":274:357  while(x!=0){... */\n      tag_15\n      jumpi\n        /* \"reversenum.sol\":322:324  10 */\n      0x0a\n        /* \"reversenum.sol\":320:321  x */\n      dup3\n        /* \"reversenum.sol\":320:324  x%10 */\n      tag_16\n      swap2\n      swap1\n      tag_17\n      jump\t// in\n    tag_16:\n        /* \"reversenum.sol\":315:317  10 */\n      0x0a\n        /* \"reversenum.sol\":308:314  revnum */\n      dup3\n        /* \"reversenum.sol\":308:317  revnum*10 */\n      tag_18\n      swap2\n      swap1\n      tag_19\n      jump\t// in\n    tag_18:\n        /* \"reversenum.sol\":307:325  (revnum*10)+(x%10) */\n      tag_20\n      swap2\n      swap1\n      tag_21\n      jump\t// in\n    tag_20:\n        /* \"reversenum.sol\":300:325  revnum=(revnum*10)+(x%10) */\n      swap1\n      pop\n        /* \"reversenum.sol\":343:345  10 */\n      0x0a\n        /* \"reversenum.sol\":340:345  x/=10 */\n      dup3\n      tag_22\n      swap2\n      swap1\n      tag_23\n      jump\t// in\n    tag_22:\n      swap2\n      pop\n        /* \"reversenum.sol\":274:357  while(x!=0){... */\n      jump(tag_14)\n    tag_15:\n        /* \"reversenum.sol\":374:380  revnum */\n      dup1\n        /* \"reversenum.sol\":367:380  return revnum */\n      swap3\n      pop\n      pop\n      pop\n        /* \"reversenum.sol\":168:388  function reversenumber() public view returns(uint){... */\n      swap1\n      jump\t// out\n        /* \"reversenum.sol\":95:162  function assignedvalue(uint temp) public{... */\n    tag_12:\n        /* \"reversenum.sol\":150:154  temp */\n      dup1\n        /* \"reversenum.sol\":146:149  num */\n      0x00\n        /* \"reversenum.sol\":146:154  num=temp */\n      dup2\n      swap1\n      sstore\n      pop\n        /* \"reversenum.sol\":95:162  function assignedvalue(uint temp) public{... */\n      pop\n      jump\t// out\n        /* \"#utility.yul\":7:84   */\n    tag_25:\n        /* \"#utility.yul\":44:51   */\n      0x00\n        /* \"#utility.yul\":73:78   */\n      dup2\n        /* \"#utility.yul\":62:78   */\n      swap1\n      pop\n        /* \"#utility.yul\":7:84   */\n      swap2\n      swap1\n      pop\n      jump\t// out\n        /* \"#utility.yul\":90:208   */\n    tag_26:\n        /* \"#utility.yul\":177:201   */\n      tag_37\n        /* \"#utility.yul\":195:200   */\n      dup2\n        /* \"#utility.yul\":177:201   */\n      tag_25\n      jump\t// in\n    tag_37:\n        /* \"#utility.yul\":172:175   */\n      dup3\n        /* \"#utility.yul\":165:202   */\n      mstore\n        /* \"#utility.yul\":90:208   */\n      pop\n      pop\n      jump\t// out\n        /* \"#utility.yul\":214:436   */\n    tag_8:\n        /* \"#utility.yul\":307:311   */\n      0x00\n        /* \"#utility.yul\":345:347   */\n      0x20\n        /* \"#utility.yul\":334:343   */\n      dup3\n        /* \"#utility.yul\":330:348   */\n      add\n        /* \"#utility.yul\":322:348   */\n      swap1\n      pop\n        /* \"#utility.yul\":358:429   */\n      tag_39\n        /* \"#utility.yul\":426:427   */\n      0x00\n        /* \"#utility.yul\":415:424   */\n      dup4\n        /* \"#utility.yul\":411:428   */\n      add\n        /* \"#utility.yul\":402:408   */\n      dup5\n        /* \"#utility.yul\":358:429   */\n      tag_26\n      jump\t// in\n    tag_39:\n        /* \"#utility.yul\":214:436   */\n      swap3\n      swap2\n      pop\n      pop\n      jump\t// out\n        /* \"#utility.yul\":523:640   */\n    tag_28:\n        /* \"#utility.yul\":632:633   */\n      0x00\n        /* \"#utility.yul\":629:630   */\n      0x00\n        /* \"#utility.yul\":622:634   */\n      revert\n        /* \"#utility.yul\":769:891   */\n    tag_30:\n        /* \"#utility.yul\":842:866   */\n      tag_44\n        /* \"#utility.yul\":860:865   */\n      dup2\n        /* \"#utility.yul\":842:866   */\n      tag_25\n      jump\t// in\n    tag_44:\n        /* \"#utility.yul\":835:840   */\n      dup2\n        /* \"#utility.yul\":832:867   */\n      eq\n        /* \"#utility.yul\":822:885   */\n      tag_45\n      jumpi\n        /* \"#utility.yul\":881:882   */\n      0x00\n        /* \"#utility.yul\":878:879   */\n      0x00\n        /* \"#utility.yul\":871:883   */\n      revert\n        /* \"#utility.yul\":822:885   */\n    tag_45:\n        /* \"#utility.yul\":769:891   */\n      pop\n      jump\t// out\n        /* \"#utility.yul\":897:1036   */\n    tag_31:\n        /* \"#utility.yul\":943:948   */\n      0x00\n        /* \"#utility.yul\":981:987   */\n      dup2\n        /* \"#utility.yul\":968:988   */\n      calldataload\n        /* \"#utility.yul\":959:988   */\n      swap1\n      pop\n        /* \"#utility.yul\":997:1030   */\n      tag_47\n        /* \"#utility.yul\":1024:1029   */\n      dup2\n        /* \"#utility.yul\":997:1030   */\n      tag_30\n      jump\t// in\n    tag_47:\n        /* \"#utility.yul\":897:1036   */\n      swap3\n      swap2\n      pop\n      pop\n      jump\t// out\n        /* \"#utility.yul\":1042:1371   */\n    tag_11:\n        /* \"#utility.yul\":1101:1107   */\n      0x00\n        /* \"#utility.yul\":1150:1152   */\n      0x20\n        /* \"#utility.yul\":1138:1147   */\n      dup3\n        /* \"#utility.yul\":1129:1136   */\n      dup5\n        /* \"#utility.yul\":1125:1148   */\n      sub\n        /* \"#utility.yul\":1121:1153   */\n      slt\n        /* \"#utility.yul\":1118:1237   */\n      iszero\n      tag_49\n      jumpi\n        /* \"#utility.yul\":1156:1235   */\n      tag_50\n      tag_28\n      jump\t// in\n    tag_50:\n        /* \"#utility.yul\":1118:1237   */\n    tag_49:\n        /* \"#utility.yul\":1276:1277   */\n      0x00\n        /* \"#utility.yul\":1301:1354   */\n      tag_51\n        /* \"#utility.yul\":1346:1353   */\n      dup5\n        /* \"#utility.yul\":1337:1343   */\n      dup3\n        /* \"#utility.yul\":1326:1335   */\n      dup6\n        /* \"#utility.yul\":1322:1344   */\n      add\n        /* \"#utility.yul\":1301:1354   */\n      tag_31\n      jump\t// in\n    tag_51:\n        /* \"#utility.yul\":1291:1354   */\n      swap2\n      pop\n        /* \"#utility.yul\":1247:1364   */\n      pop\n        /* \"#utility.yul\":1042:1371   */\n      swap3\n      swap2\n      pop\n      pop\n      jump\t// out\n        /* \"#utility.yul\":1377:1557   */\n    tag_32:\n        /* \"#utility.yul\":1425:1502   */\n      0x4e487b7100000000000000000000000000000000000000000000000000000000\n        /* \"#utility.yul\":1422:1423   */\n      0x00\n        /* \"#utility.yul\":1415:1503   */\n      mstore\n        /* \"#utility.yul\":1522:1526   */\n      0x12\n        /* \"#utility.yul\":1519:1520   */\n      0x04\n        /* \"#utility.yul\":1512:1527   */\n      mstore\n        /* \"#utility.yul\":1546:1550   */\n      0x24\n        /* \"#utility.yul\":1543:1544   */\n      0x00\n        /* \"#utility.yul\":1536:1551   */\n      revert\n        /* \"#utility.yul\":1563:1739   */\n    tag_17:\n        /* \"#utility.yul\":1595:1596   */\n      0x00\n        /* \"#utility.yul\":1612:1632   */\n      tag_54\n        /* \"#utility.yul\":1630:1631   */\n      dup3\n        /* \"#utility.yul\":1612:1632   */\n      tag_25\n      jump\t// in\n    tag_54:\n        /* \"#utility.yul\":1607:1632   */\n      swap2\n      pop\n        /* \"#utility.yul\":1646:1666   */\n      tag_55\n        /* \"#utility.yul\":1664:1665   */\n      dup4\n        /* \"#utility.yul\":1646:1666   */\n      tag_25\n      jump\t// in\n    tag_55:\n        /* \"#utility.yul\":1641:1666   */\n      swap3\n      pop\n        /* \"#utility.yul\":1685:1686   */\n      dup3\n        /* \"#utility.yul\":1675:1710   */\n      tag_56\n      jumpi\n        /* \"#utility.yul\":1690:1708   */\n      tag_57\n      tag_32\n      jump\t// in\n    tag_57:\n        /* \"#utility.yul\":1675:1710   */\n    tag_56:\n        /* \"#utility.yul\":1731:1732   */\n      dup3\n        /* \"#utility.yul\":1728:1729   */\n      dup3\n        /* \"#utility.yul\":1724:1733   */\n      mod\n        /* \"#utility.yul\":1719:1733   */\n      swap1\n      pop\n        /* \"#utility.yul\":1563:1739   */\n      swap3\n      swap2\n      pop\n      pop\n      jump\t// out\n        /* \"#utility.yul\":1745:1925   */\n    tag_33:\n        /* \"#utility.yul\":1793:1870   */\n      0x4e487b7100000000000000000000000000000000000000000000000000000000\n        /* \"#utility.yul\":1790:1791   */\n      0x00\n        /* \"#utility.yul\":1783:1871   */\n      mstore\n        /* \"#utility.yul\":1890:1894   */\n      0x11\n        /* \"#utility.yul\":1887:1888   */\n      0x04\n        /* \"#utility.yul\":1880:1895   */\n      mstore\n        /* \"#utility.yul\":1914:1918   */\n      0x24\n        /* \"#utility.yul\":1911:1912   */\n      0x00\n        /* \"#utility.yul\":1904:1919   */\n      revert\n        /* \"#utility.yul\":1931:2341   */\n    tag_19:\n        /* \"#utility.yul\":1971:1978   */\n      0x00\n        /* \"#utility.yul\":1994:2014   */\n      tag_60\n        /* \"#utility.yul\":2012:2013   */\n      dup3\n        /* \"#utility.yul\":1994:2014   */\n      tag_25\n      jump\t// in\n    tag_60:\n        /* \"#utility.yul\":1989:2014   */\n      swap2\n      pop\n        /* \"#utility.yul\":2028:2048   */\n      tag_61\n        /* \"#utility.yul\":2046:2047   */\n      dup4\n        /* \"#utility.yul\":2028:2048   */\n      tag_25\n      jump\t// in\n    tag_61:\n        /* \"#utility.yul\":2023:2048   */\n      swap3\n      pop\n        /* \"#utility.yul\":2083:2084   */\n      dup3\n        /* \"#utility.yul\":2080:2081   */\n      dup3\n        /* \"#utility.yul\":2076:2085   */\n      mul\n        /* \"#utility.yul\":2105:2135   */\n      tag_62\n        /* \"#utility.yul\":2123:2134   */\n      dup2\n        /* \"#utility.yul\":2105:2135   */\n      tag_25\n      jump\t// in\n    tag_62:\n        /* \"#utility.yul\":2094:2135   */\n      swap2\n      pop\n        /* \"#utility.yul\":2284:2285   */\n      dup3\n        /* \"#utility.yul\":2275:2282   */\n      dup3\n        /* \"#utility.yul\":2271:2286   */\n      div\n        /* \"#utility.yul\":2268:2269   */\n      dup5\n        /* \"#utility.yul\":2265:2287   */\n      eq\n        /* \"#utility.yul\":2245:2246   */\n      dup4\n        /* \"#utility.yul\":2238:2247   */\n      iszero\n        /* \"#utility.yul\":2218:2301   */\n      or\n        /* \"#utility.yul\":2195:2334   */\n      tag_63\n      jumpi\n        /* \"#utility.yul\":2314:2332   */\n      tag_64\n      tag_33\n      jump\t// in\n    tag_64:\n        /* \"#utility.yul\":2195:2334   */\n    tag_63:\n        /* \"#utility.yul\":1979:2341   */\n      pop\n        /* \"#utility.yul\":1931:2341   */\n      swap3\n      swap2\n      pop\n      pop\n      jump\t// out\n        /* \"#utility.yul\":2347:2538   */\n    tag_21:\n        /* \"#utility.yul\":2387:2390   */\n      0x00\n        /* \"#utility.yul\":2406:2426   */\n      tag_66\n        /* \"#utility.yul\":2424:2425   */\n      dup3\n        /* \"#utility.yul\":2406:2426   */\n      tag_25\n      jump\t// in\n    tag_66:\n        /* \"#utility.yul\":2401:2426   */\n      swap2\n      pop\n        /* \"#utility.yul\":2440:2460   */\n      tag_67\n        /* \"#utility.yul\":2458:2459   */\n      dup4\n        /* \"#utility.yul\":2440:2460   */\n      tag_25\n      jump\t// in\n    tag_67:\n        /* \"#utility.yul\":2435:2460   */\n      swap3\n      pop\n        /* \"#utility.yul\":2483:2484   */\n      dup3\n        /* \"#utility.yul\":2480:2481   */\n      dup3\n        /* \"#utility.yul\":2476:2485   */\n      add\n        /* \"#utility.yul\":2469:2485   */\n      swap1\n      pop\n        /* \"#utility.yul\":2504:2507   */\n      dup1\n        /* \"#utility.yul\":2501:2502   */\n      dup3\n        /* \"#utility.yul\":2498:2508   */\n      gt\n        /* \"#utility.yul\":2495:2531   */\n      iszero\n      tag_68\n      jumpi\n        /* \"#utility.yul\":2511:2529   */\n      tag_69\n      tag_33\n      jump\t// in\n    tag_69:\n        /* \"#utility.yul\":2495:2531   */\n    tag_68:\n        /* \"#utility.yul\":2347:2538   */\n      swap3\n      swap2\n      pop\n      pop\n      jump\t// out\n        /* \"#utility.yul\":2544:2729   */\n    tag_23:\n        /* \"#utility.yul\":2584:2585   */\n      0x00\n        /* \"#utility.yul\":2601:2621   */\n      tag_71\n        /* \"#utility.yul\":2619:2620   */\n      dup3\n        /* \"#utility.yul\":2601:2621   */\n      tag_25\n      jump\t// in\n    tag_71:\n        /* \"#utility.yul\":2596:2621   */\n      swap2\n      pop\n        /* \"#utility.yul\":2635:2655   */\n      tag_72\n        /* \"#utility.yul\":2653:2654   */\n      dup4\n        /* \"#utility.yul\":2635:2655   */\n      tag_25\n      jump\t// in\n    tag_72:\n        /* \"#utility.yul\":2630:2655   */\n      swap3\n      pop\n        /* \"#utility.yul\":2674:2675   */\n      dup3\n        /* \"#utility.yul\":2664:2699   */\n      tag_73\n      jumpi\n        /* \"#utility.yul\":2679:2697   */\n      tag_74\n      tag_32\n      jump\t// in\n    tag_74:\n        /* \"#utility.yul\":2664:2699   */\n    tag_73:\n        /* \"#utility.yul\":2721:2722   */\n      dup3\n        /* \"#utility.yul\":2718:2719   */\n      dup3\n        /* \"#utility.yul\":2714:2723   */\n      div\n        /* \"#utility.yul\":2709:2723   */\n      swap1\n      pop\n        /* \"#utility.yul\":2544:2729   */\n      swap3\n      swap2\n      pop\n      pop\n      jump\t// out\n\n    auxdata: 0xa26469706673582212206a6cbfd59df3071c0bf014c193b408e311998fe51314ec0d79b0fd0947b33ae564736f6c634300081e0033\n}\n",
				"bytecode": {
					"linkReferences": {},
					"object": "6080604052348015600e575f5ffd5b506102bd8061001c5f395ff3fe608060405234801561000f575f5ffd5b5060043610610034575f3560e01c80635ab47ec014610038578063b9341bb614610056575b5f5ffd5b610040610072565b60405161004d91906100e7565b60405180910390f35b610070600480360381019061006b919061012e565b6100c6565b005b5f5f5f5490505f5f90505b5f82146100be57600a826100919190610186565b600a8261009e91906101e3565b6100a89190610224565b9050600a826100b79190610257565b915061007d565b809250505090565b805f8190555050565b5f819050919050565b6100e1816100cf565b82525050565b5f6020820190506100fa5f8301846100d8565b92915050565b5f5ffd5b61010d816100cf565b8114610117575f5ffd5b50565b5f8135905061012881610104565b92915050565b5f6020828403121561014357610142610100565b5b5f6101508482850161011a565b91505092915050565b7f4e487b71000000000000000000000000000000000000000000000000000000005f52601260045260245ffd5b5f610190826100cf565b915061019b836100cf565b9250826101ab576101aa610159565b5b828206905092915050565b7f4e487b71000000000000000000000000000000000000000000000000000000005f52601160045260245ffd5b5f6101ed826100cf565b91506101f8836100cf565b9250828202610206816100cf565b9150828204841483151761021d5761021c6101b6565b5b5092915050565b5f61022e826100cf565b9150610239836100cf565b9250828201905080821115610251576102506101b6565b5b92915050565b5f610261826100cf565b915061026c836100cf565b92508261027c5761027b610159565b5b82820490509291505056fea26469706673582212206a6cbfd59df3071c0bf014c193b408e311998fe51314ec0d79b0fd0947b33ae564736f6c634300081e0033",
					"opcodes": "PUSH1 0x80 PUSH1 0x40 MSTORE CALLVALUE DUP1 ISZERO PUSH1 0xE JUMPI PUSH0 PUSH0 REVERT JUMPDEST POP PUSH2 0x2BD DUP1 PUSH2 0x1C PUSH0 CODECOPY PUSH0 RETURN INVALID PUSH1 0x80 PUSH1 0x40 MSTORE CALLVALUE DUP1 ISZERO PUSH2 0xF JUMPI PUSH0 PUSH0 REVERT JUMPDEST POP PUSH1 0x4 CALLDATASIZE LT PUSH2 0x34 JUMPI PUSH0 CALLDATALOAD PUSH1 0xE0 SHR DUP1 PUSH4 0x5AB47EC0 EQ PUSH2 0x38 JUMPI DUP1 PUSH4 0xB9341BB6 EQ PUSH2 0x56 JUMPI JUMPDEST PUSH0 PUSH0 REVERT JUMPDEST PUSH2 0x40 PUSH2 0x72 JUMP JUMPDEST PUSH1 0x40 MLOAD PUSH2 0x4D SWAP2 SWAP1 PUSH2 0xE7 JUMP JUMPDEST PUSH1 0x40 MLOAD DUP1 SWAP2 SUB SWAP1 RETURN JUMPDEST PUSH2 0x70 PUSH1 0x4 DUP1 CALLDATASIZE SUB DUP2 ADD SWAP1 PUSH2 0x6B SWAP2 SWAP1 PUSH2 0x12E JUMP JUMPDEST PUSH2 0xC6 JUMP JUMPDEST STOP JUMPDEST PUSH0 PUSH0 PUSH0 SLOAD SWAP1 POP PUSH0 PUSH0 SWAP1 POP JUMPDEST PUSH0 DUP3 EQ PUSH2 0xBE JUMPI PUSH1 0xA DUP3 PUSH2 0x91 SWAP2 SWAP1 PUSH2 0x186 JUMP JUMPDEST PUSH1 0xA DUP3 PUSH2 0x9E SWAP2 SWAP1 PUSH2 0x1E3 JUMP JUMPDEST PUSH2 0xA8 SWAP2 SWAP1 PUSH2 0x224 JUMP JUMPDEST SWAP1 POP PUSH1 0xA DUP3 PUSH2 0xB7 SWAP2 SWAP1 PUSH2 0x257 JUMP JUMPDEST SWAP2 POP PUSH2 0x7D JUMP JUMPDEST DUP1 SWAP3 POP POP POP SWAP1 JUMP JUMPDEST DUP1 PUSH0 DUP2 SWAP1 SSTORE POP POP JUMP JUMPDEST PUSH0 DUP2 SWAP1 POP SWAP2 SWAP1 POP JUMP JUMPDEST PUSH2 0xE1 DUP2 PUSH2 0xCF JUMP JUMPDEST DUP3 MSTORE POP POP JUMP JUMPDEST PUSH0 PUSH1 0x20 DUP3 ADD SWAP1 POP PUSH2 0xFA PUSH0 DUP4 ADD DUP5 PUSH2 0xD8 JUMP JUMPDEST SWAP3 SWAP2 POP POP JUMP JUMPDEST PUSH0 PUSH0 REVERT JUMPDEST PUSH2 0x10D DUP2 PUSH2 0xCF JUMP JUMPDEST DUP2 EQ PUSH2 0x117 JUMPI PUSH0 PUSH0 REVERT JUMPDEST POP JUMP JUMPDEST PUSH0 DUP2 CALLDATALOAD SWAP1 POP PUSH2 0x128 DUP2 PUSH2 0x104 JUMP JUMPDEST SWAP3 SWAP2 POP POP JUMP JUMPDEST PUSH0 PUSH1 0x20 DUP3 DUP5 SUB SLT ISZERO PUSH2 0x143 JUMPI PUSH2 0x142 PUSH2 0x100 JUMP JUMPDEST JUMPDEST PUSH0 PUSH2 0x150 DUP5 DUP3 DUP6 ADD PUSH2 0x11A JUMP JUMPDEST SWAP2 POP POP SWAP3 SWAP2 POP POP JUMP JUMPDEST PUSH32 0x4E487B7100000000000000000000000000000000000000000000000000000000 PUSH0 MSTORE PUSH1 0x12 PUSH1 0x4 MSTORE PUSH1 0x24 PUSH0 REVERT JUMPDEST PUSH0 PUSH2 0x190 DUP3 PUSH2 0xCF JUMP JUMPDEST SWAP2 POP PUSH2 0x19B DUP4 PUSH2 0xCF JUMP JUMPDEST SWAP3 POP DUP3 PUSH2 0x1AB JUMPI PUSH2 0x1AA PUSH2 0x159 JUMP JUMPDEST JUMPDEST DUP3 DUP3 MOD SWAP1 POP SWAP3 SWAP2 POP POP JUMP JUMPDEST PUSH32 0x4E487B7100000000000000000000000000000000000000000000000000000000 PUSH0 MSTORE PUSH1 0x11 PUSH1 0x4 MSTORE PUSH1 0x24 PUSH0 REVERT JUMPDEST PUSH0 PUSH2 0x1ED DUP3 PUSH2 0xCF JUMP JUMPDEST SWAP2 POP PUSH2 0x1F8 DUP4 PUSH2 0xCF JUMP JUMPDEST SWAP3 POP DUP3 DUP3 MUL PUSH2 0x206 DUP2 PUSH2 0xCF JUMP JUMPDEST SWAP2 POP DUP3 DUP3 DIV DUP5 EQ DUP4 ISZERO OR PUSH2 0x21D JUMPI PUSH2 0x21C PUSH2 0x1B6 JUMP JUMPDEST JUMPDEST POP SWAP3 SWAP2 POP POP JUMP JUMPDEST PUSH0 PUSH2 0x22E DUP3 PUSH2 0xCF JUMP JUMPDEST SWAP2 POP PUSH2 0x239 DUP4 PUSH2 0xCF JUMP JUMPDEST SWAP3 POP DUP3 DUP3 ADD SWAP1 POP DUP1 DUP3 GT ISZERO PUSH2 0x251 JUMPI PUSH2 0x250 PUSH2 0x1B6 JUMP JUMPDEST JUMPDEST SWAP3 SWAP2 POP POP JUMP JUMPDEST PUSH0 PUSH2 0x261 DUP3 PUSH2 0xCF JUMP JUMPDEST SWAP2 POP PUSH2 0x26C DUP4 PUSH2 0xCF JUMP JUMPDEST SWAP3 POP DUP3 PUSH2 0x27C JUMPI PUSH2 0x27B PUSH2 0x159 JUMP JUMPDEST JUMPDEST DUP3 DUP3 DIV SWAP1 POP SWAP3 SWAP2 POP POP JUMP INVALID LOG2 PUSH5 0x6970667358 0x22 SLT KECCAK256 PUSH11 0x6CBFD59DF3071C0BF014C1 SWAP4 0xB4 ADDMOD CALLF 0x1199 DUP16 JUMPF 0x1314 EOFCREATE 0xD PUSH26 0xB0FD0947B33AE564736F6C634300081E00330000000000000000 "
				},
				"gasEstimates": {
					"creation": {
						"codeDepositCost": "140200",
						"executionCost": "181",
						"totalCost": "140381"
					},
					"external": {
						"assignedvalue(uint256)": "22514",
						"reversenumber()": "infinite"
					}
				},
				"methodIdentifiers": {
					"assignedvalue(uint256)": "b9341bb6",
					"reversenumber()": "5ab47ec0"
				}
			},
			"storageLayout": {
				"storage": [
					{
						"astId": 3,
						"contract": "reversenum.sol:Assign5",
						"label": "num",
						"offset": 0,
						"slot": "0",
						"type": "t_uint256"
					}
				],
				"types": {
					"t_uint256": {
						"encoding": "inplace",
						"label": "uint256",
						"numberOfBytes": "32"
					}
				}
			},
			"userdoc": {
				"kind": "user",
				"methods": {},
				"version": 1
			}
		}
	}
}